:020000040800F2
:10000000D8090020290200081B230008751D0008DC
:10001000192300081F0400085929000800000000E7
:100020000000000000000000000000007B2300082A
:10003000B504000800000000792300087D230008B3
:10004000430200084302000843020008430200087C
:10005000430200084302000843020008430200086C
:10006000430200084302000843020008430200085C
:10007000430200084302000843020008430200084C
:10008000430200084302000843020008430200083C
:10009000430200084302000843020008430200082C
:1000A000430200084302000843020008430200081C
:1000B00043020008212400082D2400084302000800
:1000C00043020008430200084302000843020008FC
:1000D00043020008430200084302000843020008EC
:1000E00043020008430200084302000843020008DC
:1000F00043020008430200084302000843020008CC
:1001000043020008430200083924000843020008A3
:100110004302000843020008452400084302000887
:1001200043020008210400084302000843020008BB
:10013000430200084302000843020008430200088B
:10014000430200084302000843020008430200087B
:10015000430200082D040008430200084D2900084E
:10016000430200084302000843020008430200085B
:100170004302000843020008430200080000000098
:10018000430200084302000800F002F800F03CF8C7
:100190000AA090E8000C82448344AAF10107DA45E2
:1001A00001D100F031F8AFF2090EBAE80F0013F0F8
:1001B000010F18BFFB1A43F001031847802A000003
:1001C000A02A0000103A24BF78C878C1FAD8520794
:1001D00024BF30C830C144BF04680C6070470000C1
:1001E0000023002400250026103A28BF78C1FBD840
:1001F000520728BF30C148BF0B6070471FB502F0DF
:1002000001FD1FBD10B510BD00F0CFF81146FFF77E
:10021000F5FF02F0B3FB00F0EDF803B4FFF7F2FFD7
:1002200003BC00F0F5F80000094880470948004782
:10023000FEE7FEE7FEE7FEE7FEE7FEE7FEE7FEE796
:10024000FEE7FEE704480549054A064B70470000F3
:100250001124000889010008D8030020D8090020D3
:10026000D8050020D805002053EA020C00F0698070
:100270002DE9F04B4FF00006002B1FBFB3FA83F5BA
:1002800003FA05F424FA05F65E4012BF1643B2FAEB
:1002900082F502FA05F4C5F120051EBF22FA05FC1D
:1002A00044EA0C04203556EA044C4FEA144418BFC3
:1002B000641C4FF000084FF00009904271EB030CF2
:1002C00039D3002919BFB1FA81F701FA07F6B0FA5C
:1002D00080F700FA07F6C7F120071EBF20FA07FCD7
:1002E00046EA0C062037B6FBF4FCA7EB0507103FE7
:1002F00007F01F0BCBF120060CFA0BFB2CFA06F6CD
:1003000044BFB3460026202FA4BF5E464FF0000B2B
:100310005BEA060C08BF4FF0010B19EB0B09ABFBB6
:10032000027C48EB0608C01B06FB02CC0BFB03CC8F
:1003300071EB0C01C1E70B46024641464846BDE859
:10034000F08B13B54FF000004FF00001AFF30080C9
:10035000BDE81C4070474FF0000200B513469446BC
:100360009646203922BFA0E80C50A0E80C50B1F10D
:100370002001BFF4F7AF090728BFA0E80C5048BF21
:100380000CC05DF804EB890028BF40F8042B08BFBF
:10039000704748BF20F8022B11F0804F18BF00F8BB
:1003A000012B7047704770477047754600F02CF876
:1003B000AE4605006946534620F00700854618B052
:1003C00020B5FFF73FFFBDE820404FF000064FF09B
:1003D00000074FF000084FF0000B21F00701AC467A
:1003E000ACE8C009ACE8C009ACE8C009ACE8C00999
:1003F0008D46704710B50446AFF300802046BDE837
:100400001040FFF70ABF0000004870477403002047
:1004100001491820ABBEFEE7260002007047FEE748
:10042000014800F0A5B80000B4020020014800F027
:100430009FB800001403002001681823CAB2103AC4
:10044000B2FBF3F2054B6FF30901032A9B5CC36512
:1004500000D9091D81650846704700001C2C000862
:1004600010B5014600208B698A6A4FF0C07453B101
:10047000B3F5005F15D072B1012A0CD0022A0AD060
:10048000032A09D104E01AB1012A06D0022A03D1B5
:10049000C96AC90100D5012010BDC96AA142FAD0BC
:1004A00010BD002AF7D0012AF2D0022AF3D0032A85
:1004B000F3D010BD704772B6FEE72DE9F041044657
:1004C000876D00F09FFA064694F835000025022853
:1004D00006D08020606584F834500120BDE8F081AA
:1004E0002068016821F0160101602068416921F04F
:1004F00080014161206C08B9A06C20B120680168BE
:1005000021F0080101602068016821F0010101600B
:100510000CE000F077FA801B052807D920206065E1
:10052000032084F8350084F83450D7E72068006849
:10053000C007EED194F85C103F208840B8600120DD
:1005400084F8350084F834500020C7E790F835105F
:10055000022903D08021416501207047052180F8E0
:1005600035100068016821F001010160002070472A
:100570002DE9F84304464FF00009CDF80090634898
:100580004FF41651A56D0068B0FBF1F72E6894F892
:100590005C10082000FA01F131420FD021680A688E
:1005A00052070BD50A6822F004020A6094F85C1026
:1005B0008840A860606D40F00100606594F85C10B0
:1005C0004FF0010808FA01F0304208D0216849696B
:1005D000090604D5A860606D40F00200606594F8DB
:1005E0005C1004208840304208D0216809688907DF
:1005F00004D5A860606D40F00400606594F85C105C
:1006000010208840304218D021680968090714D5A5
:10061000A86020680168490304D50068000308D574
:10062000A16C07E00168C90503D4016821F0080145
:100630000160216C09B12046884794F85C102020A5
:100640008840304231D021680968C9062DD5A8609C
:1006500094F8350005282068016806D0490347D57D
:10066000006800031DD4616C1CE021F016010160DC
:100670002068416921F080014161206C08B9A06CBB
:1006800020B12068016821F00801016094F85C1035
:100690003F208840A86084F8358084F83490216D2C
:1006A0001FE0E16B09B120468847606D00282BD020
:1006B000606DC00714D0052084F8350020680168FB
:1006C00021F0010101600098401C0090B84203D85D
:1006D00020680068C007F6D184F8358084F834902B
:1006E000E16C002910D001B02046BDE8F043084776
:1006F0000168C905D5D4016821F01001016084F8B2
:10070000358084F83490CCE7BDE8F8832C000020D5
:100710002DE9F041044600F075F906465CB102206F
:1007200084F83500002584F834502068016821F0F1
:10073000010101600DE00120BDE8F08100F062F9E7
:10074000801B052805D920206065032084F835002A
:10075000F2E720680068C007F0D1226811682048DD
:100760000140D4E901031843D4E903363343184365
:1007700063691843A3691843E3691843236A18435C
:100780000843616A042903D1D4E90B1319430843D0
:10079000106020684069666A20F0070130460E4309
:1007A000012704280CD1A06A0643E06A40B1204624
:1007B000FFF756FE20B14020606584F83570BAE737
:1007C000206846612046FFF737FE94F85C203F2101
:1007D00091408160656584F835700020ACE70000C9
:1007E0003F8010F070B5044600F00CF90546601C1F
:1007F00002D004480078044400F004F9401BA042F1
:10080000FAD370BD200000202DE9F84FDFF8BCA11D
:100810000022012503264FF00F090AF1040BAAF16B
:10082000040E00BF0B6805FA02F42340A34270D106
:100830000F7907F00307012F01D0022F16D1876827
:100840004FEA420806FA08FC27EA0C07D1F80CC068
:100850000CFA08FC4CEA070CC0F808C04768A7432C
:100860000C79C4F3001494403C4344600C79E44395
:10087000A4070AD0C4684FEA420C06FA0CF7BC433E
:100880008F6807FA0CF72743C7600C7904F003045C
:10089000022C12D1D40800EB840CDCF8204057075E
:1008A000FF0E09FA07F824EA0804D1F8108008FAC4
:1008B00007F848EA0408CCF8208004684FEA420CA4
:1008C00006FA0CF7BC430F7907F0030707FA0CF799
:1008D000274307604C6814F4403F70D03C4C2768B5
:1008E00047F480472760246822F0030704F480441B
:1008F0000094384C07EB040CDCF8084897074FEAE3
:10090000177809FA08F7BC43334FB84202D10027E1
:1009100024E054E0314FB84201D101271EE0304FAE
:10092000B84201D1022719E02E4FB84201D1032766
:1009300014E02D4FB84201D104270FE02B4FB842ED
:1009400001D105270AE02A4FB84201D1062705E068
:10095000284FB84201D1072700E0082707FA08F717
:100960002743CCF80878DAF800405746D1F804C09D
:100970009C435FEACC2C00D51C433C60DBF8004074
:100980005F46D1F804C09C435FEA8C2C00D51C4321
:100990003C60DEF800407746D1F804C09C435FEA33
:1009A0008C3C00D51C433C60084F083F3C68D1F8A4
:1009B00004C09C435FEACC3C00D51C433C60521C05
:1009C000102AFFF42FAFBDE8F88F0000083C01406B
:1009D0004438024000300140000002400004024060
:1009E00000080240000C02400010024000140240C7
:1009F00000180240001C02400AB1816170470904DE
:100A0000FBE70000014880687047000020000020DC
:100A100002488168027811448160704720000020FC
:100A20000B4810B5016841F400710160016841F4A0
:100A300080610160016841F480710160032000F071
:100A40006FF80F2000F006F800F024F8002010BD29
:100A5000003C024070B50D4D04464FF47A71287881
:100A6000B1FBF0F00A490968B1FBF0F000F00AFBB5
:100A700048B9102C07D200222146501E00F030F851
:100A800000206C6070BD012070BD000020000020BF
:100A90002C0000200A4808B5016841F4804101603B
:100AA000006800F4804000900548001F016841F094
:100AB00080510160006800F08050009008BD000087
:100AC00044380240002809DB00F01F020121914058
:100AD0004009800000F1E020C0F8001170470000DC
:100AE000F0B40E4B1B680C46C3F30223C3F1070599
:100AF000042D00D90425191D072901D2002300E087
:100B0000DB1E012606FA05F1491E214099409E4050
:100B1000761E16403143F0BC01F01FBF0CED00E023
:100B2000064900F0070208684FF6FF03184040EA44
:100B30000220034A10430860704700000CED00E0FB
:100B40000000FA052DE9F0470E46050065D0DFF8F4
:100B50001481D8F80000F7B200F00700B04207D2C5
:100B600088F80070D8F8000000F00700B04254D1B7
:100B700028683D4C810712D5400703D5206840F412
:100B8000E05020602878000703D5206840F46040DA
:100B900020602068A96820F0F000084320602878D1
:100BA000C0072DD0304968680839012812D00228C2
:100BB00013D0032811D00968890700292DDA21688C
:100BC00021F0030101432160FFF71CFF814641F240
:100BD000883A0EE009688903EFE709688901ECE7C4
:100BE000FFF710FFA0EB0901514502D90320BDE832
:100BF000F0872068696800F00C00B0EB810FEFD13E
:100C0000D8F80010404601F00701B14207D907703B
:100C1000006800F00700B04201D00120E7E7287823
:100C2000400705D52068E96820F4E05008432060BB
:100C30002878000706D52068296920F4604040EA3A
:100C4000C100206000F038F82168084AC1F30311A0
:100C5000515CC8400649086006480068FFF7FAFE84
:100C60000020C4E7003C024008380240242C000861
:100C70002C00002024000020044805490068096871
:100C8000044AC1F38221515CC84070472C00002007
:100C900008380240342C00080448054900680968F7
:100CA000044AC1F34231515CC84070472C00002017
:100CB00008380240342C0008154810B5006810F0C0
:100CC0000C02144813D04110042A0FD0082A0ED168
:100CD0000F4C241F2268236802F03F025B0207D5F5
:100CE0002068C0F38810A0FB010106E0084610BD93
:100CF0002168C1F38811A1FB00010023FFF7B4FABA
:100D00002168C1F30141491C4900B0FBF1F010BD5D
:100D1000083802400024F4002DE9F84F04006ED09A
:100D20002078DFF84C93C007A9F104054AD009F1F7
:100D300004000168C1F38101012908D00068C0F3F3
:100D4000810002280AD1D9F80000400206D528689F
:100D5000800337D560680028E1D033E06068B0F5E3
:100D6000803F10D0B0F5A02F286810D020F480303C
:100D70002860286820F4802028606068A8B1FFF708
:100D800041FE06460DE0286840F48030F4E740F468
:100D900080202860F7E700BFFFF734FE801B64283F
:100DA00073D828688003F7D50CE0FFF72BFE0646C2
:100DB00005E000BFFFF726FE801B6428F0D82868F6
:100DC0008003F7D42078DFF8AC8280074FF0000A68
:100DD0003ED5A748001D016811F00C0F08D000682F
:100DE000C0F3810002280BD1D9F80000400207D4DB
:100DF0002868800716D5E068012800D112E033E1A9
:100E0000E068B8B10120C8F80000FFF7FBFD064616
:100E100005E000BFFFF7F6FD801B0228C0D8286858
:100E20008007F7D52868216920F0F80040EAC10062
:100E300028600DE0C8F800A0FFF7E4FD064604E0D6
:100E4000FFF7E0FD801B02281FD828688007F7D431
:100E50002078000722D5864F87486169703771B1C5
:100E600001210160FFF7CEFD064604E0FFF7CAFD51
:100E7000801B022809D838688007F7D50EE0C0F833
:100E800000A0FFF7BFFD064605E082E0FFF7BAFDD0
:100E9000801B02287DD838688007F7D42078400767
:100EA00068D5DFF8CCB100270BF13C0BDBF8000074
:100EB000C0000BD4DBF8001041F08051CBF80010DB
:100EC000DBF80000012700F0805000906B4E306886
:100ED000C00510D4306840F480703060FFF792FD98
:100EE000009005E0FFF78EFD0099401A022850D8C7
:100EF0003068C005F6D55E4EA0686C3601280FD06C
:100F00000528306810D020F001003060306820F0F3
:100F100004003060A068B8B1FFF774FD00900FE0E6
:100F2000306840F00100F4E740F004003060F7E77B
:100F3000FFF768FD0099411A41F28830814266D876
:100F400030688007F4D50EE0FFF75CFD009007E005
:100F5000FFF758FD0099411A41F28830814256D876
:100F600030688007F4D42FB1DBF8001021F08051F5
:100F7000CBF80010A069C8B33D49091D0968C1F349
:100F8000810102294AD00228504607D0C8F86000E3
:100F900000E03CE0FFF736FD04463BE04746C8F87A
:100FA0006000FFF72FFD064605E000BFFFF72AFDB2
:100FB000801B02282BD828688001F7D4D4E90701C8
:100FC0000843A16A2E4A490802EB0141626A41EADC
:100FD0008211084394F82C1040EA0161C9F800100E
:100FE00001203866FFF70EFD044606E03EE000BF34
:100FF000FFF708FD001B022809D828688001F7D5F3
:1010000034E000BFFFF7FEFC001B022802D90320DA
:10101000BDE8F88F28688001F4D427E00128F7D0D4
:10102000D9F80000E26900F4800191421CD1226AE3
:1010300000F03F01914217D147F6C071626A01404A
:10104000B1EB821F10D1A26A4FF0FF3300F44031A0
:1010500003EB5202B1EB024F06D194F82C1000F0D2
:101060007060B0EB016F01D00120D1E70020CFE725
:101070000438024000004742800E474200700040A2
:101080000000FFFF10B5401EB0F1807F01D30120AA
:1010900010BD4FF0E02460610F21601701F05DFC8E
:1010A0000020A06107202061002010BD704770471C
:1010B00010B590F83C20012A22D0012280F83C2073
:1010C000CA688C6822F4407222434C6822F4806221
:1010D00022430C6822F4006222430C6922F48052FD
:1010E00022434C6922F400522243C969002322F4AE
:1010F00080420A4301684A6480F83C30002010BDF9
:10110000022010BD70B590F83C20012A32D0012495
:1011100080F83C40022280F83D2003685A689D68B0
:1011200022F070060A6832435A60134B02689A42F2
:1011300014D0B2F1804F11D0104B9A420ED0104B08
:101140009A420BD00F4B9A4208D00F4B9A4205D0CF
:101150000E4B9A4202D00E4B9A4204D1496825F0B8
:1011600080031943916080F83D40002180F83C10D5
:10117000084670BD022070BD000001400004004020
:1011800000080040000C0040000401400040014005
:101190000018004010B5040003D094F83D0010B1D1
:1011A00007E0012010BD002084F83C00204600F03C
:1011B0001FF8022084F83D00211D206801F048F945
:1011C000012084F8460084F83E0084F83F0084F84B
:1011D000400084F8410084F8420084F8430084F819
:1011E000440084F8450084F83D00002010BD000054
:1011F00008B501682548814201D1254816E02448F8
:10120000001FB1F1804F11D0224A914217D10168DD
:1012100041F0040101600068002200F00400009029
:1012200011461E20FFF75CFC1E202BE0016841F0F8
:1012300001010160006800F00100009008BD164A3D
:1012400091420ED1016841F008010160006800225E
:1012500000F00800009011463220FFF741FC3220D8
:1012600010E00E4A9142E9D1016841F0100101609D
:101270000068002200F01000009001213620FFF7E6
:101280002FFC3620BDE80840FFF71CBC00000140E1
:101290004438024000080040000C004000100040AC
:1012A00070B5044690F83C000025012817D00126AF
:1012B00084F83C60022084F83D002068826822F0B7
:1012C000770222F47F4282600868502838D00DDC13
:1012D00020284FD005DC90B3102811D14AE002201D
:1012E00070BD302846D040280AD13BE060282FD07E
:1012F00070280DD0B0F5805F03D0B0F5005F12D03C
:10130000012584F83D60002084F83C00284670BD2B
:10131000CB68D1E90121206801F00BF920688168D0
:1013200041F0770109E0CB68D1E90121206801F0A3
:1013300000F92068816841F480418160E1E719E0AB
:10134000CA684968206801F0C9F95021206806E0A0
:10135000CA684968206801F0D2F96021206801F06C
:10136000F2F8CEE7CA684968206801F0B7F9402171
:101370002068F4E7226801461046F0E72DE9F041C5
:101380000D46040003D094F83D0018B108E0012098
:10139000BDE8F081002084F83C00204600F040F8D1
:1013A000022084F83D002068816844F207029143DE
:1013B0008160211D206801F04BF8226890689169D6
:1013C000166A2B68AF69034340F20330814341EA58
:1013D0000721A868EF6908434FF6FC418843E96894
:1013E00040EA0720014328692F6A000140EA0730DC
:1013F000084369686D6926F0AA0646EA051529437F
:1014000093602268906154F8460B0162012004F851
:101410001F09E0752076E0762077A0750020B7E7F9
:1014200010B586B0044614216846FEF794FF1649AD
:101430002068884226D115480021026842F0020245
:101440000260006800F00200059010481038026841
:1014500042F001020260006800F001000590C02027
:1014600000900220CDE90101CDE90310694608484A
:10147000FFF7CAF9002211461D20FFF731FB1D209E
:10148000FFF720FB06B010BD0004004040380240CA
:1014900000000240704770B50446006801694FF0D3
:1014A0000005C943890715D4C168C943890711D408
:1014B000E91E0161012020772068806980072046AD
:1014C00002D0FFF7E7FF04E000F04BF9204600F000
:1014D0000BFA257720680169C943490717D4C16809
:1014E000C943490713D46FF004010161022020773A
:1014F0002068806910F4407F204602D0FFF7CAFFC1
:1015000004E000F02EF9204600F0EEF9257720687F
:101510000169C943090716D4C168C943090712D430
:101520006FF008010161042020772068C0698007FE
:10153000204602D0FFF7AEFF04E000F012F920468B
:1015400000F0D2F9257720680169C943C90617D48C
:10155000C168C943C90613D46FF0100101610820A6
:1015600020772068C06910F4407F204602D0FFF742
:1015700091FF04E000F0F5F8204600F0B5F925777A
:1015800020680169C943C90708D1C168C943C907AF
:1015900004D1891E0161204600F00CFA206801691F
:1015A000C943090609D4C168C943090605D46FF0C7
:1015B000800101612046FFF779FD20680169C94378
:1015C000490609D4C168C943490605D46FF04001F2
:1015D0000161204600F0EFF920680169C9438906DE
:1015E0000BD4C168C943890607D46FF0200101619B
:1015F0002046BDE87040FFF75ABD70BDF0B587B01A
:10160000044614216846FEF7A6FE3A4822680024E4
:1016100039490225012682420FD1086840F01000A6
:1016200008600868694600F0100005904FF42060DB
:101630000090CDE90154314843E03148B2F1804F88
:1016400015D04FEAF0439A4241D1086840F00800B3
:1016500008600868694600F0080005904FF4704083
:101660000090CDE901542748CDE903452BE00A68F5
:1016700042F001020A600A6802F0010205920A685B
:1016800042F002020A6009680095CDE9015401F0B8
:101690000201CDE90461039569460746FFF7B4F8F6
:1016A00024200090CDE90154CDE90346694638462F
:1016B000FFF7AAF84FF400600090CDE901541248FA
:1016C0006946CDE90346FFF79FF807B0F0BD0F4B21
:1016D0009A42FAD10A6842F001020A60096800964B
:1016E000CDE9015401F00101CDE9045103956946AA
:1016F000E9E70000000001403038024000100240DD
:1017000000000240000C024000040240000C0040B7
:1017100070B5044690F83C00002501280FD0012048
:1017200084F83C006AB1042A0FD0082A11D00C2A90
:1017300013D00125002084F83C00284670BD02200B
:1017400070BD206800F008FFF4E7206800F034FF67
:10175000F0E7206800F066FFECE7206800F096FFF5
:10176000E8E7704710B5040003D094F83D0010B1CD
:1017700007E0012010BD002084F83C00204600F066
:101780001EF8022084F83D00211D206800F060FE54
:10179000012084F8460084F83E0084F83F0084F875
:1017A000400084F8410084F8420084F8430084F843
:1017B000440084F8450084F83D00002010BD7047C7
:1017C00070B5044690F83C0000260D4601280FD065
:1017D000012084F83C006AB1042A1DD0082A2FD0C9
:1017E0000C2A3FD00126002084F83C00304670BD12
:1017F000022070BD206800F0AFFE2068816941F0D2
:10180000080181612068816921F0040181612068FB
:1018100081692A69114311E0206800F0CDFE20683B
:10182000816941F4006181612068816921F48061EE
:101830008161206881692A6941EA02218161D2E7D8
:10184000206800F0EFFE2068C16941F00801C16125
:101850002068C16921F00401C1612068C1692A6959
:10186000114311E0206800F011FF2068C16941F4C4
:101870000061C1612068C16921F48061C161206893
:10188000C1692A6941EA0221C161ACE710B50400CF
:1018900003D094F83D0010B107E0012010BD0020F6
:1018A00084F83C00204600F01EF8022084F83D0039
:1018B000211D206800F0CCFD012084F8460084F84A
:1018C0003E0084F83F0084F8400084F8410084F82A
:1018D000420084F8430084F8440084F8450084F80A
:1018E0003D00002010BD70477047000010B5044651
:1018F000022249B104290ED0082913D094F84100DE
:10190000012816D0012010BD94F83E000128F9D11D
:1019100084F83E200FE094F83F000128F2D184F8CB
:101920003F2008E094F840000128EBD184F84020E3
:1019300001E084F841200122206800F0EDFD164905
:101940002068164A884201D0904203D1436C43F488
:10195000004343642068884213D0B0F1804F10D018
:101960000F4988420DD00F4988420AD00E4988425B
:1019700007D0904205D00D49884202D00C498842D8
:1019800004D1816801F00701062903D0016841F004
:1019900001010160002010BD000001400004014071
:1019A0000004004000080040000C004000400140DE
:1019B000001800407047704770477047F8B50168DD
:1019C00004460868CA684B6910F00F0F4FF0000515
:1019D00059D003F0010602F49077374365D0C10770
:1019E00005D0D10503D5216C41F0010121644107E7
:1019F00005D5D90703D0216C41F00201216481078C
:101A000005D5D90703D0216C41F0040121640107F9
:101A100007D502F02001314303D0216C41F00801C9
:101A20002164216C00293AD0800604D5900602D5A5
:101A3000204600F0A5FE20684069216CC0F38010AC
:101A4000090700D460B3204600F073FE20684069A7
:101A5000400621D52068143050E8001F21F04001D5
:101A600040E80012002AF5D1A06BA8B16C490165CD
:101A7000A06BFEF76BFD002811D0A06B016D01B0CB
:101A8000BDE8F040084783060FD593060DD52046E4
:101A9000BDE8F84000F074BE2046FFF78EFFF8BDA9
:101AA0002046FFF78AFF2564F8BD266B2023012E10
:101AB00079D1C60677D5D60675D5086848680090EE
:101AC0004869400640D5A16B086840680004000CD6
:101AD000EAD0A28D8242E7D9E085C869B0F5807F5F
:101AE0002DD020680C3050E8001F21F4807140E8B0
:101AF0000012002AF5D12068143050E8001F21F0B0
:101B0000010140E80012002AF5D12068143050E8A5
:101B1000001F21F0400140E80012002AF5D184F8AE
:101B20003E30256320680C3050E8001F21F0100182
:101B300040E80012002AF5D1A06BFEF7BEFCA08D94
:101B4000E18D401A81B229E0A08DE18D401A81B269
:101B5000E08D0028A8D00029A6D020680C3050E8DD
:101B6000002F22F4907240E80026002EF5D1206864
:101B7000143050E8002F22F0010240E80026002E29
:101B8000F5D184F83E30256320680C3050E8002FF2
:101B900022F0100240E80023002BF5D12046FFF789
:101BA0000BFFF8BDFFE705062BD5150629D594F8E0
:101BB0003D002128F5D1A068B0F5805F01D12069F2
:101BC000B0B1206A411C2162216800784860E08C35
:101BD000401E0004000CE084E3D12068C16821F0BD
:101BE0008001C1602068C16841F04001C160D8E750
:101BF000206A0088C0F308004860206A801C2062C8
:101C0000E5E74006CDD55006CBD5CA68204622F080
:101C10004002CA6084F83D3000F0ABF8C1E7000034
:101C20002327000870B5040004D094F83D00002577
:101C300010B106E0012070BD84F83C50204600F051
:101C400023F8242084F83D002068C16821F4005165
:101C5000C160204600F0F4FD2068016921F4904144
:101C600001612068416921F02A0141612068C16851
:101C700041F40051C1602564202084F83D0084F8BF
:101C80003E00002070BD00002DE9F04387B00646FD
:101C900014216846FEF75FFB3049306888425AD10C
:101CA0002F480025016841F020010160006800F024
:101CB000200005902A481438016841F004010160B1
:101CC0000068694600F004000590C02000900220E2
:101CD000CDE9010503200390082004902148FEF778
:101CE00093FD224C20484FF4806887052060C4E9AA
:101CF0000175C4E9035880156561C4E906504FF4C5
:101D00008039C4E908952046FEF702FD08B1FEF7C8
:101D1000D2FBB463A663154C134860347830E4E812
:101D200002074020A4E82101104844F8145960300B
:101D3000A561C4E907596562FEF7EAFC08B1FEF740
:101D4000BAFB7463002202214720A663FEF7C8FE97
:101D50004720FEF7B7FE07B0BDE8F083001401404E
:101D6000443802400008024028640240B4020020C7
:101D700070477047FEE700000D4808B5016841F460
:101D8000800101600068002200F48000009011468C
:101D90003920FEF7A5FE3920FEF794FE00221146F9
:101DA0004520FEF79DFEBDE808404520FEF78ABEAF
:101DB000303802402DE9F04786B014216846FEF71E
:101DC000CAFA51480024016841F01001016001681D
:101DD00001F010010591016841F080010160016886
:101DE00001F080010591016841F001010160016885
:101DF00001F001010591016841F0040101600168F1
:101E000001F004010591016841F0020101600168DF
:101E100001F002010591016841F0080101600068CC
:101E20003A4F00F008000590002218213846FEF7CE
:101E3000E3FDDFF8DC80002230214046FEF7DCFDC8
:101E4000DFF8D090002247F287014846FEF7D4FD24
:101E5000DFF8C4A0002204215046FEF7CDFD10207B
:101E600000904FF404100125CDE9010569462B4887
:101E7000FEF7CAFC182002268DE861006946384644
:101E80000396FEF7C1FC30208DE8610069464046AC
:101E90000396FEF7B9FC07208DE8610069464846C5
:101EA0000396FEF7B1FC4FF4E1400090CDE90154F8
:101EB000694648460394FEF7A7FC48F22800CDE99E
:101EC0000004694648460294FEF79EFC40F2BA7050
:101ED000CDE90004694650460294FEF795FC4FF4A4
:101EE000E050CDE90004694640460294FEF78CFCC0
:101EF00004200090CDE90154694650460394FEF752
:101F000083FC06B0BDE8F087303802400000024094
:101F10000008024000040240000C02400010024091
:101F200010B596B000240F94109411941294139449
:101F30001C2168461494FEF70EFA202107A8FEF72C
:101F40000AFA2C482A49016040F2CF21C0E9011465
:101F50006321C0E9031444618461FFF71BF908B1F0
:101F6000FEF7A9FA4FF480500F900FA92148FFF710
:101F700097F908B1FEF79FFA1E48FFF787FC08B1F2
:101F8000FEF799FA139413A91A481494FFF7BAF8B4
:101F900008B1FEF790FA6020CDE9000402940394A2
:101FA000049405940022694612480694FFF708FC41
:101FB00008B1FEF780FA042269460E48FFF700FCDC
:101FC00008B1FEF778FA0794089409944FF400508A
:101FD0000A94CDE90B4007A906480E94FFF768F86C
:101FE00008B1FEF768FA0348FFF708FB16B010BD0A
:101FF00000000140C000002010B58EB000240794FE
:10200000089409940A940B941C2168460C94FEF7DA
:10201000A2F92D484FF0804101604721C0E9011429
:1020200044F61F61C0E903148461FFF7B3F808B1F7
:10203000FEF741FA4FF48050079007A92248FFF7B6
:102040002FF908B1FEF737FA1F48FFF71FFC08B158
:10205000FEF731FA1C48FFF785FB08B1FEF72BFAB3
:102060000B940BA918480C94FFF74CF808B1FEF735
:1020700022FA6020CDE90004029400226946124849
:102080000494FFF79DFB08B1FEF715FA0422694698
:102090000D48FFF795FB08B1FEF70DFA08226946D7
:1020A0000948FFF78DFB08B1FEF705FA0C226946D7
:1020B00005480094FFF72CFB08B1FEF7FCF9024835
:1020C000FFF79CFA0EB010BD0801002010B58CB0CF
:1020D00024216846FEF73FF9002415480994134966
:1020E0000A94C0E900144FF6FF71C0E9024104618F
:1020F00084610120CDE90004CDE902040494CDE916
:102100000540079469460A480894FFF737F908B173
:10211000FEF7D1F9099409A905480A94FEF7F2FFE0
:10212000002801D0FEF7C7F90CB010BD0004004034
:102130005001002010B58EB0002407940894099433
:102140000A940B941C2168460C94FEF704F92B4862
:102150002949016041F61F41C0E90114C721C0E9C6
:10216000031480218161FFF715F808B1FEF7A3F988
:102170004FF48050079007A92048FFF791F808B165
:10218000FEF799F91D48FFF781FB08B1FEF793F9B7
:102190000B940BA919480C94FEF7B4FF08B1FEF795
:1021A0008AF96020CDE900040294002269461348B0
:1021B0000494FFF705FB08B1FEF77DF90422694698
:1021C0000E48FFF7FDFA08B1FEF775F908226946D7
:1021D0000A48FFF7F5FA08B1FEF76DF90C226946D7
:1021E0000648FFF7EDFA08B1FEF765F90348FFF777
:1021F00005FA0EB010BD0000000800409801002054
:1022000010B58EB000240794089409940A940B9496
:102210001C2168460C94FEF79EF81F481D4901607A
:1022200041F61F41C0E90114C721C0E90314802110
:102230008161FEF7AFFF08B1FEF73DF94FF4805022
:10224000079007A91448FFF72BF808B1FEF733F9F8
:102250001148FFF71BFB08B1FEF72DF90B940BA9F2
:102260000D480C94FEF74EFF08B1FEF724F96020EC
:10227000CDE9000402940022694607480494FFF760
:102280009FFA08B1FEF717F90348FFF7B7F90EB048
:1022900010BD0000000C0040E00100201CB500242F
:1022A0000E4800940C490194016041F61F41C0E9B9
:1022B000011463218461C160FEF76CFF08B1FEF771
:1022C000FAF80094694605480194FEF71BFF0028C0
:1022D00001D0FEF7F0F81CBD0010004028020020DD
:1022E0000C4810B50A4901604FF4E131416000210A
:1022F00081600C22C160C0E904128161C161FFF7F5
:1023000091FC002803D0BDE81040FEF7D4B810BD02
:102310000014014070020020FEE7FEE7002828D0EC
:10232000002A26D0017092ED001A80ED011A92ED7C
:10233000011A80ED021A92ED021A80ED031A80ED67
:10234000040A9FED0C0AC0ED050A80ED0E0A80ED2F
:102350000D0A80ED0C0A80ED080A80ED0B0A80ED75
:102360000A0A80ED090A80ED110A80ED100A80ED5D
:102370000F0A70470000000070477047FEF748BB27
:1023800030B593B030216846FDF7E5FF14210CA865
:10239000FDF7E1FF1C480025016841F08051016014
:1023A000006800F0805011901848016841F48041A5
:1023B00001600068022400F4804011900120009028
:1023C000000401908001CDE9064008AA04204821BC
:1023D00082E813000B906846FEF79EFC08B172B6C7
:1023E000FEE70CA90F2081E831004FF48050CDE9C1
:1023F0000F0502210CA8FEF7A5FB002801D072B63C
:10240000FEE713B030BD00004038024000700040CD
:102410000248016841F470010160704788ED00E0F6
:102420000148FFF738B80000500100200148FFF7CD
:1024300032B80000980100200148FFF72CB80000D6
:10244000E00100200148FFF726B800002802002024
:10245000F0B50268254C264D264E274F274B4FF0EE
:10246000804CA04209D0604507D0A84205D0B042B8
:1024700003D0B84201D0984204D122F0700E4A68CD
:1024800042EA0E02A0421BD0604519D0A84217D0E4
:10249000B04215D0B84213D0984211D0184DA8427E
:1024A0000ED0184DA8420BD0174DA84208D0174D9A
:1024B000A84205D0164DA84202D0164DA84203D11D
:1024C00022F44075CA682A434D6922F080022A43EB
:1024D00002608A68C2620A688262A04201D09842A1
:1024E00001D10969016301214161F0BD0000014092
:1024F0000004004000080040000C004000040140BF
:1025000000400140004401400048014000180040E4
:10251000001C00400020004010B501F01F03012105
:10252000046A99408C430462016A9A401143016233
:1025300010BD10B5846842EA032224F47F440A43A4
:102540002243826010BD826822F070020A4342F08A
:102550000701816070470000F0B5026A22F00102B5
:102560000262036A42688469124E24F073050C68A3
:102570002C4323F002058B682B430D4DA84201D05C
:10258000B04205D123F00807CB683B4323F0040396
:10259000A84201D0B04205D14D6922F440721543E2
:1025A0008A692A4342608461496841630362F0BDDD
:1025B0000000014000040140F0B5026A22F0100260
:1025C0000262026A436884690D6824F4E64444EABE
:1025D00005248D6822F0200242EA05120F4D104EAC
:1025E000A84201D0B04206D1CF6822F0800242EA70
:1025F000071222F04002A84201D0B04207D14D6933
:1026000023F4406343EA85038D6943EA850343600D
:102610008461496881630262F0BD000000000140EE
:1026200000040140F0B5026A22F480720262026A7C
:102630004368C46922F4007224F073050C68124EDA
:102640002C438D6842EA05220E4DA84201D0B042CB
:1026500006D1CF6822F4006242EA072222F48062A7
:10266000A84201D0B04207D14D6923F4405343EA58
:1026700005138D6943EA05134360C4614968C1636A
:102680000262F0BD000001400004014030B5026A62
:1026900022F480520262046A4268C3690D6823F41E
:1026A000E64343EA05238D6824F4005444EA0534E4
:1026B000084DA84202D0084DA84204D14D6922F429
:1026C000804242EA85124260C36149680164046243
:1026D00030BD0000000001400004014010B5036A55
:1026E000046A24F001040462846924F0F00444EADA
:1026F000021423F00A020A438461026210BD10B57D
:10270000036A23F0100303628369046A23F47043AD
:1027100043EA023224F0A00343EA0111826101621C
:1027200010BD10B5806B0021C185C184FFF745F94C
:1027300010BD01680C3151E8002F22F4907241E87D
:102740000023002BF5D10168143151E8002F22F04D
:10275000010241E80023002BF5D1016B012909D1C9
:1027600001680C3151E8002F22F0100241E80023EB
:10277000002BF5D1202180F83E1000210163704725
:1027800008B590F83E10222901D0022008BD8268C9
:102790004FF480539A4201D1016921B1816A9A4272
:1027A0001BD04AB10AE00268816A5268C2F308028B
:1027B0000A80816A891C08E0026972B10268526865
:1027C00002F07F020A70816A491C8162C18D491E34
:1027D0000904090CC18503D019E002685268F1E7C9
:1027E0000168CA6822F02002CA600168CA6822F43F
:1027F0008072CA6001684A6922F001024A612021A0
:1028000080F83E10016B012903D0FFF7B1FA0020D8
:1028100008BD0021016301680C3151E8002F22F04E
:10282000100241E80023002BF5D101680A68D206A6
:1028300002D50A6849680091818DFFF7BDF8E6E787
:1028400070B5044600680169E26821F44051114303
:1028500001612169A068E269084361691143084385
:102860002168CA6849F20C639A430243CA6020682F
:102870004169A26921F440711143416131492068E5
:10288000884202D03049884202D1FEF705FA01E0C1
:10289000FEF7F2F9E2690023192164253226B2F528
:1028A000004F626828D0A0FB0101930F9200FDF752
:1028B000DBFC0146B0FBF5F06FF01802504301EB72
:1028C000800006EB0010B0FBF5F000F0F002B1FB69
:1028D000F5F002EB0012B1FBF5F06FF0180358436E
:1028E00001EB800006EB0010B0FBF5F000F00F00EC
:1028F00021681044886070BDA0FB010192185B4103
:10290000FDF7B2FC0146B0FBF5F00201B1FBF5F0BA
:102910006FF01803584301EB800006EBC000B0FBDA
:10292000F5F000F0F80002EB4002B1FBF5F058437F
:1029300001EB800006EBC000B0FBF5F000F00700F3
:10294000D6E7000000100140001401400148FFF7E5
:1029500035B8000070020020FEE70907090E0028C4
:1029600004DB00F1E02080F80014704700F00F0055
:1029700000F1E02080F8141D704700002DED028B5F
:10298000FEF74EF8FFF7FCFCFFF714FAFFF7F4F937
:10299000FFF7A6FCFFF7C4FAFFF798FBFFF7CAFBA7
:1029A000FFF72EFCFFF77AFCFFF726FB9FED298A45
:1029B000294A0021F0EE480AB0EE480A2748FFF7FE
:1029C000ADFC2648F0EE480AB0EE480A224A002143
:1029D0004830FFF7A3FC00212148FEF787FF0421C0
:1029E0001F48FEF783FF00211E48FEF77FFF0421EA
:1029F0001C48FEF77BFF08211A48FEF777FF0C21E1
:102A00001848FEF773FF00211748FEF76FFF1748BD
:102A10001E21416314218163154C00BF00F0A0F812
:102A200000F076F800EE100AB8EE400A84ED000AD5
:102A300000F048F800EE100AB8EE400A84ED010AF2
:102A400000F018F800EE100AB8EE400A84ED020A11
:102A5000E4E7000000007A44102C00083000002059
:102A6000C0000020080100205001002000000140AB
:102A70001400002010B5114C00224FF48041204674
:102A8000FDF7BAFF012251032046FDF7B5FF0C4CBC
:102A9000002020800A20FDF7A5FE04F10E01208809
:102AA0008988C0EB0020B0FBF1F080B2A081FF2844
:102AB00001D9FF20A08180B210BD000000040240B7
:102AC0000000002010B5104C012291032046FDF7B4
:102AD00093FF012251032046FDF78EFF0B4C00208F
:102AE00020800A20FDF77EFE04F10E01208849882F
:102AF000C0EB0020B0FBF1F080B26081FF2801D96B
:102B0000FF20608180B210BD000402400000002060
:102B100010B5114C00224FF480412046FDF76CFFA8
:102B200000224FF400512046FDF766FF0B4C0020B9
:102B300020800A20FDF756FE04F10E012088098846
:102B4000C0EB0020B0FBF1F080B22081FF2801D95A
:102B5000FF20208180B210BD000402400000002050
:102B60002DE9F047DFF894804FF480470022394682
:102B70004046FDF741FF4FF40059002249464046C8
:102B8000FDF73AFF1E4C00250A202580FDF72AFE9E
:102B90002088608004F10E062580308001223946AD
:102BA0004046FDF729FF012249464046FDF724FF34
:102BB00025800A20FDF716FE2088A08025807080E1
:102BC000002239464046FDF717FF0122494640469C
:102BD000FDF712FF25800A20FDF704FE2088E08023
:102BE0002580B080012239464046FDF705FF494661
:102BF0004046BDE8F0470022FDF7FEBE000402405B
:102C0000000000204FF04070E1EE100A7047000015
:102C100000002041CDCCCC3D000000000006101685
:102C2000000610160000000000000000010203046E
:102C30000607080900000000010203045C2C0008DC
:102C40000000002030000000C40100088C2C0008A7
:102C500030000020A8090000E0010008000000008A
:102C60000000000000000000000000000000000064
:102C70000000000000000000000000000100000053
:0C2C800010000000000000000024F40020
:040000050800018965
:00000001FF
